{
  "_format": "hh-sol-artifact-1",
  "contractName": "OnchainRiddle",
  "sourceName": "contracts/OnchainRiddle.sol",
  "abi": [
    {
      "inputs": [],
      "stateMutability": "nonpayable",
      "type": "constructor"
    },
    {
      "anonymous": false,
      "inputs": [
        {
          "indexed": true,
          "internalType": "address",
          "name": "user",
          "type": "address"
        },
        {
          "indexed": false,
          "internalType": "bool",
          "name": "correct",
          "type": "bool"
        }
      ],
      "name": "AnswerAttempt",
      "type": "event"
    },
    {
      "anonymous": false,
      "inputs": [
        {
          "indexed": false,
          "internalType": "string",
          "name": "riddle",
          "type": "string"
        }
      ],
      "name": "RiddleSet",
      "type": "event"
    },
    {
      "anonymous": false,
      "inputs": [
        {
          "indexed": true,
          "internalType": "address",
          "name": "user",
          "type": "address"
        }
      ],
      "name": "Winner",
      "type": "event"
    },
    {
      "inputs": [],
      "name": "bot",
      "outputs": [
        {
          "internalType": "address",
          "name": "",
          "type": "address"
        }
      ],
      "stateMutability": "view",
      "type": "function"
    },
    {
      "inputs": [],
      "name": "isActive",
      "outputs": [
        {
          "internalType": "bool",
          "name": "",
          "type": "bool"
        }
      ],
      "stateMutability": "view",
      "type": "function"
    },
    {
      "inputs": [],
      "name": "riddle",
      "outputs": [
        {
          "internalType": "string",
          "name": "",
          "type": "string"
        }
      ],
      "stateMutability": "view",
      "type": "function"
    },
    {
      "inputs": [
        {
          "internalType": "string",
          "name": "_riddle",
          "type": "string"
        },
        {
          "internalType": "bytes32",
          "name": "_answerHash",
          "type": "bytes32"
        }
      ],
      "name": "setRiddle",
      "outputs": [],
      "stateMutability": "nonpayable",
      "type": "function"
    },
    {
      "inputs": [
        {
          "internalType": "string",
          "name": "_answer",
          "type": "string"
        }
      ],
      "name": "submitAnswer",
      "outputs": [],
      "stateMutability": "nonpayable",
      "type": "function"
    },
    {
      "inputs": [],
      "name": "winner",
      "outputs": [
        {
          "internalType": "address",
          "name": "",
          "type": "address"
        }
      ],
      "stateMutability": "view",
      "type": "function"
    }
  ],
  "bytecode": "0x60808060405234602757600080546001600160a01b03191633179055610716908161002d8239f35b600080fdfe608080604052600436101561001357600080fd5b60003560e01c90816310814c371461059a575080631fdf5585146102ff57806322f3e2d4146102d957806356049a861461020d578063bb3e31591461008f5763dfbf53ae1461006157600080fd5b3461008a57600036600319011261008a576003546040516001600160a01b039091168152602090f35b600080fd5b3461008a57602036600319011261008a5760043567ffffffffffffffff811161008a576100c09036906004016105e0565b6003549060ff8260a01c16156101d5576001600160a01b0382166101985760405161010c602082816100fb8183019687815193849201610671565b81010301601f1981018352826105be565b51902060025414610153575b3360018060a01b0360035416146040519081527fe1fc7c66a657ead4c3d3717cd8f74fb75e793a583bdc4105621e53abf02a9b0560203392a2005b6001600160a81b0319163360ff60a01b198116919091176003557f745c90b656b4aafe296c8ca35aeacfe56cb96c90e1d320e5da643fff1051b6c0600080a280610118565b60405162461bcd60e51b8152602060048201526015602482015274149a59191b1948185b1c9958591e481cdbdb1d9959605a1b6044820152606490fd5b60405162461bcd60e51b815260206004820152601060248201526f4e6f2061637469766520726964646c6560801b6044820152606490fd5b3461008a57600036600319011261008a57604051600060015461022f81610637565b80845290600181169081156102b55750600114610267575b61026383610257818503826105be565b60405191829182610694565b0390f35b91905060016000526000805160206106c1833981519152916000905b80821061029b57509091508101602001610257610247565b919260018160209254838588010152019101909291610283565b60ff191660208086019190915291151560051b840190910191506102579050610247565b3461008a57600036600319011261008a57602060ff60035460a01c166040519015158152f35b3461008a57604036600319011261008a5760043567ffffffffffffffff811161008a576103309036906004016105e0565b6000546001600160a01b031633036105555760ff60035460a01c1661051857805167ffffffffffffffff81116105025761036b600154610637565b601f8111610495575b506020601f82116001146103ff5791816103ef927fc7c868b4cedbfd1ed1d9ab41c080a195ed463c01132c6c4b4b8d7983d1c5c29c946000916103f4575b508160011b916000199060031b1c1916176001555b602435600255600380546001600160a81b031916600160a01b17905560405191829182610694565b0390a1005b9050820151856103b2565b601f1982169060016000526000805160206106c18339815191529160005b81811061047d5750927fc7c868b4cedbfd1ed1d9ab41c080a195ed463c01132c6c4b4b8d7983d1c5c29c9492600192826103ef9610610464575b5050811b016001556103c7565b84015160001960f88460031b161c191690558580610457565b9192602060018192868901518155019401920161041d565b6001600052601f820160051c6000805160206106c18339815191520190602083106104ec575b601f0160051c6000805160206106c183398151915201905b8181106104e05750610374565b600081556001016104d3565b6000805160206106c183398151915291506104bb565b634e487b7160e01b600052604160045260246000fd5b60405162461bcd60e51b8152602060048201526015602482015274526964646c6520616c72656164792061637469766560581b6044820152606490fd5b60405162461bcd60e51b815260206004820152601f60248201527f4f6e6c7920626f742063616e2063616c6c20746869732066756e6374696f6e006044820152606490fd5b3461008a57600036600319011261008a576000546001600160a01b03168152602090f35b90601f8019910116810190811067ffffffffffffffff82111761050257604052565b81601f8201121561008a5780359067ffffffffffffffff82116105025760405192610615601f8401601f1916602001856105be565b8284526020838301011161008a57816000926020809301838601378301015290565b90600182811c92168015610667575b602083101461065157565b634e487b7160e01b600052602260045260246000fd5b91607f1691610646565b60005b8381106106845750506000910152565b8181015183820152602001610674565b604091602082526106b48151809281602086015260208686019101610671565b601f01601f191601019056feb10e2d527612073b26eecdfd717e6a320cf44b4afac2b0732d9fcbe2b7fa0cf6a264697066735822122086a364b6e4b07fd998b3dbbf4d91e88d5ba3667a31daa548e95d47608911f06364736f6c634300081c0033",
  "linkReferences": {},
  "deployedLinkReferences": {}
}